:020000040000FA
:0600000025EF0CF01200D8
:0A0006000200D21800008A0000007A
:1000100004000000D01800008E0000000200000064
:100020004CEC05F0FB0EDBCFF3FFDB06F3500009D1
:100030000AE09AEC05F0FA0E05EC06F0F3E1151C67
:10004000F1E1010E01D0000E7BEF05F04CEC05F064
:100050003B0EE12402E3E168E652E16E010EDB6A49
:10006000020EDB6AF90EDBCFF6FFFA0EDBCFF7FFED
:10007000FB0EDBCFF8FF0800F550DF6EDF5002E12A
:100080009FEF04F0250EDF5C02E092EF04F0030E18
:10009000DB6A040EDB6A050EDB6A060EDB6A070EFE
:1000A000DB6AB4EC04F02D0EDF5C0CE02B0EDF5CA1
:1000B00009E0200EDF5C06E0230EDF5C03E0300E7B
:1000C000DF5C1AE1DF50300A14E0130A0FE0030A84
:1000D0000AE00B0A05E0060AE4E1030EDB80E1D743
:1000E000030EDB82DED7030EDB84DBD7030EDB8659
:1000F000D8D7030EDB88D5D72A0EDF5C1BE1B0EC26
:1001000004F0FEEC04F010E0030EDB8006680768E4
:10011000130EDBCF0DF0140EDBCF0EF075EC0BF0F1
:10012000040E04C0DBFF03D0130EE7EC04F0B4ECC4
:1001300004F00BD0090EDB6A55EC05F003E0C9ECC6
:1001400005F0FAD7090EE7EC04F0030EDBB0DB98FC
:100150002E0EDF5C1BE1B4EC04F02A0EDF5C0BE139
:10016000B0EC04F0FEEC04F003E1130E39EC05F002
:10017000B4EC04F00BD0090EDB6A55EC05F003E09B
:10018000C9EC05F0FAD7090E39EC05F0680EDF5C12
:1001900007E1B4EC04F0680EDF5C1DE1030E18D03B
:1001A000740EDF5C17E07A0EDF5C14E0480EDF5C53
:1001B00006E0540EDF5C03E05A0EDF5C02E1020E43
:1001C00007D06C0EDF5C03E06A0EDF5C04E1010E19
:1001D0008CEC05F0C9DBDF506E0A01E17FD31E0A0B
:1001E00001E192D1200A01E18FD13F0A01E149D119
:1001F0001A0A01E146D10D0A01E143D1200A01E1C9
:1002000040D13A0A01E13DD1200A01E13AD1260A62
:1002100001E135D10D0A01E132D11A0A01E1D9D04B
:10022000200A4AE0300A1FE0460A0EE0250A01E0F3
:1002300083D3D950F90FE96EFF0EDA20EA6E010E72
:10024000EE5E000EEE5AEE5A9AEC05F0250EE66EC2
:1002500095DB03E1151C01E169D396EC05F001E2A1
:100260006BD3DB2A69D3080EDB6A040EDB5001086E
:1002700006E2040EDB045EEC05F0DB508BDB080EBF
:10028000DB5009E0030EDB50010B05E172DB01E0FE
:100290004DD3080EDB6A64DBEFCFDFFF0EEC06F018
:1002A00003E1151C01E142D396EC05F001E3DB2AE2
:1002B00060DB01E141D33AD3070EDB5002080FE1C6
:1002C000DAEC05F0030EA1EC05F00E0EEECFDBFF2D
:1002D0000F0EEECFDBFF100EEECFDBFF20D0F70EC0
:1002E000DBCF17F0F80EDBCF18F0020E175E000E12
:1002F000185AF70E17C0DBFFF80E18C0DBFF17C047
:10030000E9FF18C0EAFF91EC05F0166A0E0E14C062
:10031000DBFF0F0E15C0DBFF100E16C0DBFF0E0E4D
:10032000DBCFE6FF0F0EDBCFE6FF100EDBCFE6FFE5
:100330001EEC0BF0E552E552E552130E05C0DBFF53
:10034000140E06C0DBFF060EDB5005E0130ED5ECE5
:1003500005F001E26ADBF9EC05F002E2130E37DB8F
:10036000BCEC05F006E0040ED5EC05F002E2050E4B
:100370002EDB030EDBB005D0FCDA01E0D7D2080E8D
:10038000DB6A090EDB6A0E0EDBCFF6FF0F0EDBCF4A
:10039000F7FF100EDBCFF8FF0800F550DF6EDF50DF
:1003A00014E0FFEC05F011E20EEC06F003E1151C81
:1003B00001E1BCD2BBDB01E3DB2A090EDB2AD95009
:1003C0000E0FE96E000ECBDBE7D7D3DA01E1B4D232
:1003D000ADD2C6DA110EEECFDBFF120EEDCFDBFF92
:1003E000110EDBCFE6FF120EDBCFE6FF10EC0BF0B9
:1003F000E552E552130EF3CFDBFF140EF4CFDBFF13
:10040000060EDB5004E0130ED0DB01E20EDBF9EC4C
:1004100005F002E2130EDBDAAFDB05E0040EC5DB0C
:1004200002E2050ED4DA030EDBB005D0A2DA01E059
:100430007DD2080EDB6A090EDB6A110EDBCFE9FF05
:10044000120EDBCFEAFFEFCFDFFFDF5014E0D7DB88
:1004500012E2E4DB03E1151C01E168D267DB01E392
:10046000DB2A090EDB2A110EDB2ADBCFE9FF120E95
:10047000E8E3DB2AE6D77DDA01E15ED257D2030E4C
:10048000DB8E070EDB0410E195DB040E5ADB0A0E4F
:10049000EECFDBFF0B0EEECFDBFF0C0EEECFDBFF64
:1004A0000D0EEECFDBFF6CD0070EDB5003082CE106
:1004B000030EDBAE0DD0B2DA020E76DAEFCF14F017
:1004C000156A166A176A14AE39D01568166835D0E1
:1004D000F70EDBCF15F0F80EDBCF16F0020E155E2F
:1004E000000E165AF70E15C0DBFFF80E16C0DBFF24
:1004F00015C0E9FF16C0EAFFEFCF14F00A0E14C0D2
:10050000DBFF0B0EDB6A38D0070EDB50020809E177
:10051000030EDBAE04D059DB16AE10D00ED055DB87
:100520000DD0030EDBAE12D079DA020E3DDAF9DA25
:10053000166A176A15AE02D016681768E2DA0C0E52
:1005400016C0DBFF0D0E17C0DBFF1AD0F70EDBCF96
:1005500016F0F80EDBCF17F0020E165E000E175ADB
:10056000F70E16C0DBFFF80E17C0DBFF16C0E9FF61
:1005700017C0EAFFD6DAC5DA0C0EDB6A0D0EDB6AAD
:10058000060EDB5005E1010EF36E050EF3CFDBFF27
:10059000150EDB6A160EDB6AD950370F146E000E8B
:1005A000DA20156E390E14C0DBFF3A0E15C0DBFFE2
:1005B000380EDB6A080EDB6A0A0EAEDADF50780A04
:1005C00012E0200A10E0280A0CE0200A0AE03F0AA4
:1005D00006E00D0A02E0200A08E1020E05D0080E2E
:1005E00003D0080EDF26100E97DA030EDBBE02D012
:1005F000DB92DB94DB50800B24E08ADAD890030E88
:10060000EB50000A08E6000EEE5C000EEE58000EFD
:10061000EE58000EEE5815E213DA0B680C680D6800
:100620000E68D8EC0AF00A0E00C0DBFF0B0E01C00A
:10063000DBFF0C0E02C0DBFF0D0E03C0DBFF2D0E37
:1006400008D0030EDBA202D02B0E03D0DBA408D00F
:10065000200EF36E170EF3CFDBFF150EDB2A02D050
:10066000170EDB6A050EDB5003E1B7D901E189D033
:10067000AC0E146E180E156E000E166E070EDBCF44
:1006800017F0186A196A1A6A17C00BF018C00CF034
:1006900019C00DF01AC00EF0D3D9C8EC0BF01450ED
:1006A0000024F36E15500120F46E16500220F86EEF
:1006B000F4CFF7FFF3CFF6FF0800090EF5CFDBFF0D
:1006C000580EDF5C0FE1610EF36E090E7BD90AE371
:1006D000200E146E090EDBCFE7FF1450E75E090E03
:1006E000E7CFDBFF070EDBCF14F0156A166A176A37
:1006F0000FDA14C00BF015C00CF016C00DF017C0C7
:100700000EF0EECF04F0EECF05F0EECF06F0EFCF17
:1007100007F0C8EC0BF007C0EDFF06C0EDFF05C009
:10072000EDFF04C0EFFF390EDBCFE9FFDB063A0E29
:10073000DBCFEAFF01E2DB06090EDBCFEFFF150E90
:10074000DB2A4BD995E1030EDBA61DD06F0EDF5CD3
:1007500006E1C1D918E3150EDB285BDA14D0780E58
:10076000DF5C09E0580EDF5C06E0620EDF5C03E050
:10077000420EDF5C08E1020EF36E160EF3CFDBFFD4
:1007800002D0150EDB6A030EDB50100B0EE0040ED8
:10079000DBCF14F0050EDB50D880145406E2060EB1
:1007A000DB5003E1040EDB5034DA95D90AE2050E82
:1007B000DBCFE7FF150EDB50E75E050EE7CFDBFF73
:1007C00002D0050EDB6A040EDBCF14F0160E45D9FD
:1007D000D880145414E2160EDBCFE6FF150EDBCFE3
:1007E000E6FF040EDBCFE6FF050EDB50E552E75CCB
:1007F000E552D880E754E552D880E7545FD9030E1C
:10080000DB50010B0BE1080EDB5008E0B2D801E031
:100810008DD0080EDB50BED8080EDB6A170EDB50F9
:1008200007E088D9170EF1D903E1151C01E17ED04C
:10083000160EDB5016E07ED9300EE66E9FD802E130
:10084000151C74E077D9DFCFE6FF96EC0AF0E5528D
:10085000E552E552F4CF15F00001F31C02E1151C3E
:1008600065E0050EDBCF14F0160EDB50D880145473
:1008700009E2050EDBCFE7FF160EDB50E75E050E43
:10088000E7CFDBFF300EE66E050ECBD94FE1390E18
:10089000DB2ADBCFE9FF3A0E01E3DB2ADBCFEAFFFD
:1008A000090EEFCFDBFFDB500EE044D9090EADD9C6
:1008B00002E1151C3BE0390EDB2ADBCFE9FF3A0EE3
:1008C000EDE3DB2AEBD755D831E1160EDBCFE6FF9F
:1008D000080EC3D8E552E7245DD82ED0070EDB50B2
:1008E000030A1CE0010A14E0030A07E07BD9DBCF0E
:1008F000EEFF020EDBCFEDFF1FD0F5D8196A17AE61
:1009000002D0186819682CD8BCD819C0EEFF14D0D2
:10091000EAD817BE186824D8B4D80ED063D9DBCF74
:10092000EFFF0AD07BD905E1151C03E1F368F468F9
:1009300010D0FCD801E3DB2A79D93BEF00F0010E9F
:10094000DBCF14F0020EDBCF15F014C0F3FF15C09F
:10095000F4FF3B0EE15C02E2E16AE552E16ECBD0CE
:1009600029D9020EA1EF05F061D90800F550DF6E1C
:100970001200200EE66E080E11EF06F096EC0AF05B
:10098000E552E552E552F3CF14F0F4CF15F0000133
:10099000F31C1200146E156AD950010F4DD9145072
:1009A000EE261550ED221200185E000E195AF70EB1
:1009B00018C0DBFFF80E19C0DBFF18C0E9FF19C033
:1009C000EAFF1200DBCFF4FFF350F45C1200DB50BF
:1009D000E76E040EE7CFDBFF12000A0EDBCF14F048
:1009E0000B0EDBCF15F00C0EDBCF16F00D0EDBCFB0
:1009F00017F014501510161017101200130EEECF2A
:100A0000DBFF140EEDCFDBFF130EDBCF14F0140E63
:100A1000DBCF15F00001800E15141200F70EDBCFAE
:100A200018F0F80EDBCF19F01200050EDB50E66E61
:100A3000D950130F01D9E552E750EE6EED6A12005E
:100A40000A0EDBCF04F00B0EDBCF05F00C0EDBCF74
:100A500006F00D0EDBCF07F01200DBCFE6FF150E20
:100A6000DBCFE6FF050EDB50E552E724E552E72435
:100A70001200DB50CED8010EF36E060EF3CFDBFF73
:100A80001200EE50EFCFEAFFE96E16C0EEFF17C07E
:100A9000EEFF18C0EEFF1200D9CFE6FFDACFE6FF77
:100AA000E1CFD9FFE2CFDAFF1200DFCFE6FFE66A3F
:100AB00003EC0CF0E552E552F3501200E76E080E1D
:100AC000E7CFDBFF1200EECF14F0EECF15F0EFCF43
:100AD00016F0176A1200050EDBCF14F0150EDB506E
:100AE000D88014541200010EDBCF16F0020EDBCFBB
:100AF00017F0186A1200E552E5CFDAFFE7CFD9FF09
:100B000012000A0E14C0DBFF0B0E15C0DBFF120033
:100B1000D9500A0F1CEF06F0F36E070EF3CFDBFF80
:100B20001200EECF14F0EFCF15F01200010EDB2A09
:100B3000020E1200FC0EDBCFE6FFFD0EDBCFE6FF60
:100B40001200145E000E155AF70E14C0DBFFF80EEB
:100B500015C0DBFF14C0E9FF15C0EAFF1200DA2060
:100B6000EA6EEF2AEECFF6FF000EEF22EECFF7FF90
:100B7000EF22EECFF8FF1200040EDBCFE6FF130EDC
:100B8000DB50E552E75C9ADFDB5004DF060EDB50FA
:100B90001200090EDB500A0DF350DF24D00FE76E70
:100BA000090EE7CFDBFFB4EF04F0DB50F36E050E68
:100BB000E2EF04F0F70EDBCF14F0F80EDBCF15F008
:100BC0001200DFCFE6FFBEEF04F028DF030EECDEFD
:100BD00063EF05F010EC00F0E552E552E552E55206
:100BE00000091200BDDEEE50EFCFEAFFE96E010E04
:100BF0001200130EDB50F36E040EE2EF04F0040E4D
:100C0000DB50F36E090EE2EF04F0DBCFE6FFBEEF40
:100C100004F0E76E050EE7CFDBFF12008BDFE1EF9C
:100C200005F0DBCFE6FF86DFEAEF05F0D950F90FDC
:100C3000E96EFF0EAFEF05F0E96E000EDA20EA6E06
:020C40001200A0
:0E0C4200D9CFE6FFE1CFD9FF020EE126DE6A30
:100C5000DD6A5DD8100EE66EE66A3C0EE66E51EC7B
:100C60000AF0E552E552E552F2A43CD0C10ED76E2F
:100C7000800ED66E808264EC0CF05FEC0CF0000904
:100C800001E0FBD74DEC0CF0F3CFDEFFF4CFDDFF3E
:100C9000DECF14F0DDCF15F0000114508C5D15503F
:100CA0008D5905E2DECF8CF0DDCF8DF002D08DC006
:100CB0008DF0DECF14F0DDCF15F08A51145C8B512E
:100CC000155805E2DECF8AF0DDCF8BF002D08BC065
:100CD0008BF0DECFE6FFDDCFE6FFD4D9E552E5525B
:100CE000F294809280B408D029D880A4FED7000165
:100CF0008A698B698C6B8D6BB7D7020EE15C02E25F
:100D0000E16AE552E16EE552E7CFD9FF1200010E2C
:100D1000C26E0E0EC16EA60EC06E92689292720ED8
:100D2000D36EB886D59CD59AC10ED76E800ED66E7E
:100D3000F294D58EF29AF29E80921200D9CFE6FFFD
:100D4000E1CFD9FF2E0EE126DE6ADD6A020EDB6AF4
:100D5000030EDB6A040EDB6A050EDB6A060EDB6A35
:100D6000070EDB6A080EDB6A090EDB6A0A0EDB6A15
:100D70000B0EDB6A0C0EDB6A0D0EDB6A0E0EDB6AF5
:100D80000F0EDB6A100EDB6A110EDB6A120EDB6AD5
:100D9000130EDB6A140EDB6A150EDB6A160EDB6AB5
:100DA000170EDB6A180EDB6A190EDB6A1A0EDB6A95
:100DB0001B0EDB6A1C0EDB6A1D0EDB6A1E0EDB6A75
:100DC0001F0EDB6A00018C39146AF00B156E180EC9
:100DD00014C0DBFF190E15C0DBFF180EDBCF14F0BB
:100DE000190EDBCF15F01538156A0F0B146E100EA7
:100DF00014C0DBFF110E15C0DBFF8CC015F0146AA8
:100E00001A0E14C0DBFF1B0E15C0DBFF1A0EDBCF62
:100E100014F01B0EDBCF15F01538156A0F0B146E8E
:100E2000120E14C0DBFF130E15C0DBFF8CC014F0D4
:100E30008DC015F0040ED89014361536E804FBE189
:100E40001C0E14C0DBFF1D0E15C0DBFF1C0EDBCF1C
:100E500014F01D0EDBCF15F01538156A0F0B146E4C
:100E6000140E14C0DBFF150E15C0DBFF00018D3919
:100E7000156A0F0B146E160E14C0DBFF170E15C08B
:100E8000DBFF8A39146AF00B156E080E14C0DBFF05
:100E9000090E15C0DBFF080EDBCF14F0090EDBCF07
:100EA00015F01538156A0F0B146E14C0DEFF15C04F
:100EB000DDFF8AC015F0146A0A0E14C0DBFF0B0EAA
:100EC00015C0DBFF0A0EDBCF14F00B0EDBCF15F0E5
:100ED0001538156A0F0B146E020E14C0DBFF030EDB
:100EE00015C0DBFF8AC014F08BC015F0040ED8903B
:100EF00014361536E804FBE10C0E14C0DBFF0D0EB2
:100F000015C0DBFF0C0EDBCF14F00D0EDBCF15F0A0
:100F10001538156A0F0B146E040E14C0DBFF050E96
:100F200015C0DBFF00018B39156A0F0B146E060E1E
:100F300014C0DBFF070E15C0DBFF300EF36E270E6B
:100F4000F3CFDBFF780EF36E280EF3CFDBFF160E28
:100F5000DBCFE6FF170EDBCFE6FF89D9E552E5527E
:100F6000E76E290EE7CFDBFF140EDBCFE6FF150E91
:100F7000DBCFE6FF7CD9E552E552E76E2A0EE7CFDC
:100F8000DBFF120EDBCFE6FF130EDBCFE6FF6FD9E0
:100F9000E552E552E76E2B0EE7CFDBFF100EDBCFFD
:100FA000E6FF110EDBCFE6FF62D9E552E552E76EB0
:100FB0002C0EE7CFDBFF2D0EDB6A300EF36E200E1A
:100FC000F3CFDBFF780EF36E210EF3CFDBFF060EBF
:100FD000DBCFE6FF070EDBCFE6FF49D9E552E5524E
:100FE000E76E220EE7CFDBFF040EDBCFE6FF050E38
:100FF000DBCFE6FF3CD9E552E552E76E230EE7CFA3
:10100000DBFF020EDBCFE6FF030EDBCFE6FF2FD9BF
:10101000E552E552E76E240EE7CFDBFFDECFE6FFB9
:10102000DDCFE6FF24D9E552E552E76E250EE7CF86
:10103000DBFF260EDB6AD950200FE66E000EDA20A9
:10104000E66ED950270FE66E000EDA20E66E850EAA
:10105000146E180E156E166A14C0E6FF15C0E6FF72
:1010600016C0E6FF05EC0AF0176E070EE15E17509A
:101070002E0EE15C02E2E16AE552E16EE552E7CF55
:10108000D9FF1200D9CFE6FFE1CFD9FF170EE12635
:10109000DE6ADD6A020EDB6A030EDB6A040EDB6ABF
:1010A000050EDB6A060EDB6A070EDB6A080EDB6ADA
:1010B000090EDB6A0A0EDB6A0B0EDB6A0C0EDB6ABA
:1010C0000D0EDB6A0E0EDB6A0F0EDB6AFD0EDBCF48
:1010D00014F0FE0EDBCF15F01438146AF00B156E09
:1010E000080E14C0DBFF090E15C0DBFF080EDBCFB6
:1010F00014F0090EDBCF15F01538156A0F0B146EBE
:1011000014C0DEFF15C0DDFFFD0EDBCF14F0FE0EB8
:10111000DBCF15F014C015F0146A0A0E14C0DBFF03
:101120000B0E15C0DBFF0A0EDBCF14F00B0EDBCF6E
:1011300015F01538156A0F0B146E020E14C0DBFF84
:10114000030E15C0DBFFFD0EDBCF14F0FE0EDBCF70
:1011500015F0040ED89014361536E804FBE10C0E99
:1011600014C0DBFF0D0E15C0DBFF0C0EDBCF14F03F
:101170000D0EDBCF15F01538156A0F0B146E040E2B
:1011800014C0DBFF050E15C0DBFFFD0EDBCF14F036
:10119000FE0EDBCF15F01538156A0F0B146E060E18
:1011A00014C0DBFF070E15C0DBFF300EF36E100E10
:1011B000F3CFDBFF780EF36E110EF3CFDBFF060EDD
:1011C000DBCFE6FF070EDBCFE6FF51D8E552E55255
:1011D000E76E120EE7CFDBFF040EDBCFE6FF050E56
:1011E000DBCFE6FF44D8E552E552E76E130EE7CFBA
:1011F000DBFF020EDBCFE6FF030EDBCFE6FF37D8C7
:10120000E552E552E76E140EE7CFDBFFDECFE6FFD7
:10121000DDCFE6FF2CD8E552E552E76E150EE7CF9D
:10122000DBFF160EDB6AD950100FE66E000EDA20D7
:10123000E66EA2EC0BF0E552E552820E146E180E2B
:10124000156E166A14C0E6FF15C0E6FF16C0E6FF6D
:1012500043EC0BF0E552E552E552170EE15C02E279
:10126000E16AE552E16EE552E7CFD9FF1200D9CF2E
:10127000E6FFE1CFD9FFFD0EDBCF06F0FE0EDBCFA0
:1012800007F00F0E061801E107506AE00E0E06186F
:1012900001E1075063E00D0E061801E107505CE024
:1012A0000C0E061801E1075055E00B0E061801E17F
:1012B00007504EE00A0E061801E1075047E0090EFC
:1012C000061801E1075040E0080E061801E107503A
:1012D00039E0070E061801E1075032E0060E061845
:1012E00001E107502BE0050E061801E1075024E04C
:1012F000040E061801E107501DE0030E061801E177
:10130000075016E0020E061801E107500FE0010E2B
:10131000061801E1075008E0065001E1075002E01D
:10132000300E20D0300E1ED0310E1CD0320E1AD00E
:10133000330E18D0340E16D0350E14D0360E12D00F
:10134000370E10D0380E0ED0390E0CD0410E0AD008
:10135000420E08D0430E06D0440E04D0450E02D0F3
:0C136000460E00D0E552E7CFD9FF120086
:04136C00060EF66E05
:10137000000EF76E000EF86E00010900F550856F43
:101380000900F550866F03E1856701D03DD0090063
:10139000F550806F0900F550816F0900F550826F9C
:1013A00009000900F550E96E0900F550EA6E0900E0
:1013B00009000900F550836F0900F550846F09009A
:1013C0000900F6CF87F0F7CF88F0F8CF89F080C01A
:1013D000F6FF81C0F7FF82C0F8FF0001835302E1EE
:1013E000845307E00900F550EE6E8307F8E28407A6
:1013F000F9D787C0F6FF88C0F7FF89C0F8FF000162
:0A1400008507000E865BBFD71200BF
:06140A00D9CFE6FFDACFA6
:10141000E6FFE1CFD9FFE2CFDAFFE652E652E6522D
:10142000E652D950FB0F146EFF0EDA20156E14C071
:10143000DEFFDD6EDECFE6FFDDCFE6FFFB0EDBCFAE
:10144000E6FFFC0EDBCFE6FFFD0EDBCFE6FF8EC036
:10145000E6FF8FC0E6FF26EC00F0146E070EE15C9D
:1014600002E2E16AE552E16E1450020EF3CFDBFFB7
:10147000030EF4CFDBFF020EDBCF14F0030EDBCF45
:1014800015F014C0F3FF15C0F4FF040EE15C02E296
:10149000E16AE552E16EE552E5CFDAFFE7CFD9FF29
:0214A000120038
:0E14A200D9CFE6FFDACFE6FFE1CFD9FFE2CFE8
:1014B000DAFFAC6AAB6AFD0EDBB0AC88DBA202D00F
:1014C000AC8CAB8CDBB4AC8EDBA602D0AB8801D08D
:1014D000AB8ADBB8AC849E98DBBAAB86DBAC02D0BF
:1014E0009D8A01D09D9A9E9ADBAE02D09D8801D044
:1014F0009D98FB0EDB50AF6EFB0EFC0EDBCF15F0A4
:1015000015C014F0156A1450B06EAC8AAB8E949C62
:10151000948EAC50100B04E0AC50800B01E1948C25
:0C152000E552E5CFDAFFE7CFD9FF12005B
:04152C00D9CFE6FF2E
:10153000DACFE6FFE1CFD9FFE2CFDAFFFB0EDBCF58
:1015400014F0FC0EDBCF15F00001800E15141AE12B
:10155000FB0EDBCFE9FFFC0EDBCFEAFFEECFF3FFA4
:10156000EDCFF4FFEE2A000EEF22F3CFE9FFF4CF28
:10157000EAFFFD0EDBCFEFFFEF50156AF36E15C0EB
:10158000F4FF10D0FB0EDB50FE0806E1FD0EDBCFB2
:10159000E6FF33EC0CF005D0FD0EDBCFE6FF66EC8A
:1015A0000CF0E552E552E5CFDAFFE7CFD9FF1200A4
:1015B00004500B02F3CF00F0F4CF01F00C02F35013
:1015C0000126000EF420026E04500D02F350022694
:1015D000000EF420036E04500E02F3500326055053
:1015E0000B02F3500126F4500222000E0322055094
:1015F0000C02F3500226F450032205500D02F35062
:10160000032606500B02F3500226F4500322065024
:101610000C02F350032607500B02F350032612006E
:10162000FE0EE3CFE9FFFF0EE3CFEAFFF36AF46AB1
:10163000EE5203E0F34AF42AFBD71200FF0EE3CF89
:10164000F8FFE552FF0EE3CFF7FFE552FF0EE3CFC1
:10165000F6FFE552E66AE66AE66A0900F55209E035
:10166000FD0EE32A05E1FE0EE32A02E1FF0EE32A66
:10167000F4D7FD0EE3CF05F0FE0EE3CF06F0FF0E2C
:06168000E3CF07F01200A9
:0A168600D9CFE6FFDACFE6FFE1CF8F
:10169000D9FFE2CFDAFFACA2FED7FB0EDBCFF6FF1D
:1016A000FC0EDBCFF7FFFD0EDBCFF8FF0800F55097
:1016B000E66EECEC0BF0E552D950FB0FE96EFF0E35
:1016C000DA20EA6EEFCFF6FFEE2AEFCFF7FF000E3B
:1016D000EE22EFCFF8FFEE220800F550DCE1E552F4
:0A16E000E5CFDAFFE7CFD9FF1200D3
:0616EA0007C013F006C06A
:1016F00012F006500D02F4CF05F0F3CF04F00750BE
:101700000E02F4CF07F0F3CF06F00D02F3500526DA
:10171000F4500622E86A072212500E02F350052602
:10172000F4500622E86A07220EAE9BEF0BF012502F
:10173000065E1350075A13AE000C0D50065E0E5095
:04174000075A000C38
:0C174400D9CFE6FFDACFE6FFE1CFD9FFF6
:10175000E2CFDAFFACA2FED7FC0EDBCFE9FFFD0E35
:10176000DBCFEAFFEF50E66EECEC0BF0E552FC0E3F
:10177000DBCFE9FFDB2AFD0EDBCFEAFF01E3DB2A4B
:10178000EF50E8E1E552E5CFDAFFE7CFD9FF1200ED
:10179000036A026A016A006A200EE76ED890043676
:1017A00005360636073600360136023603360B504C
:1017B000005C0C5001580D5002580E50035809E3BC
:1017C0000B50005E0C50015A0D50025A0E50035A35
:0817D000042AE72EE4D7120001
:0817D800D9CFE6FFDACFE6FFEE
:1017E000E1CFD9FFE2CFDAFFACAC04D0AC9000017E
:1017F00090B3AC80FD0EDB50AD6EE552E5CFDAFF65
:06180000E7CFD9FF120042
:0A180600F36AF46AFF0EE124E96EB4
:10181000FF0EE220EA6EED6607D02F0EEF6404D0D3
:0A1820003A0EEF6001D0F32A120027
:06182A00800EF36E00EEDB
:1018300000F00F0E01D81200EA6002D0EE6AFCD769
:0A184000F350E9601200EE6AFCD7D5
:06184A001EEE00F02EEE80
:1018500000F0F86A0A9CB6EC09F067EC0CF021EC99
:0618600006F0FBD71200A8
:0A186600FF0EE350ACBA04D0AF6AE5
:10187000AB8EAC8A949CACA2FED7AD6EF36EF46ACC
:02188000120054
:0E1882000D0A004D41583D25730D0A4D494E8B
:091890003D25730D0A230D0A0029
:06189A00C450176E166A2F
:0C18A000C3501610F36E17C0F4FF1200C6
:0418AC003031323372
:0D18B000343536373839616263646566008F
:0218BE00C25016
:0818C000020B01E0010E120011
:0418C800C2821200C6
:0218CC00120008
:0218CE00120006
:0218D000FEFF19
:0418D200FFFF000014
:020000040030CA
:0100010009F5
:0100020019E4
:010003001EDE
:010005008179
:010006008079
:010008000FE8
:01000900C036
:00000001FF
